{
  "contractName": "sheeraCoin",
  "abi": [
    {
      "constant": false,
      "inputs": [
        {
          "name": "_name",
          "type": "string"
        },
        {
          "name": "_pin",
          "type": "uint256"
        }
      ],
      "name": "createAccount",
      "outputs": [],
      "payable": false,
      "stateMutability": "nonpayable",
      "type": "function"
    },
    {
      "constant": true,
      "inputs": [
        {
          "name": "_pin",
          "type": "uint256"
        }
      ],
      "name": "checkBalance",
      "outputs": [
        {
          "name": "",
          "type": "uint256"
        }
      ],
      "payable": false,
      "stateMutability": "view",
      "type": "function"
    },
    {
      "constant": false,
      "inputs": [
        {
          "name": "_receiver",
          "type": "address"
        },
        {
          "name": "_amt",
          "type": "uint256"
        },
        {
          "name": "_pin",
          "type": "uint256"
        }
      ],
      "name": "transfer_coin",
      "outputs": [],
      "payable": false,
      "stateMutability": "nonpayable",
      "type": "function"
    }
  ],
  "bytecode": "0x608060405234801561001057600080fd5b5061061f806100206000396000f300608060405260043610610057576000357c0100000000000000000000000000000000000000000000000000000000900463ffffffff16806341d2ad381461005c5780636586ace6146100b35780637f28628614610126575b600080fd5b34801561006857600080fd5b506100b1600480360381019080803573ffffffffffffffffffffffffffffffffffffffff1690602001909291908035906020019092919080359060200190929190505050610167565b005b3480156100bf57600080fd5b50610124600480360381019080803590602001908201803590602001908080601f016020809104026020016040519081016040528093929190818152602001838380828437820191505050505050919291929080359060200190929190505050610321565b005b34801561013257600080fd5b5061015160048036038101908080359060200190929190505050610417565b6040518082815260200191505060405180910390f35b80806000803373ffffffffffffffffffffffffffffffffffffffff1673ffffffffffffffffffffffffffffffffffffffff168152602001908152602001600020600201541415156101b757600080fd5b82806000803373ffffffffffffffffffffffffffffffffffffffff1673ffffffffffffffffffffffffffffffffffffffff168152602001908152602001600020600301541015151561020857600080fd5b836000803373ffffffffffffffffffffffffffffffffffffffff1673ffffffffffffffffffffffffffffffffffffffff16815260200190815260200160002060030154036000803373ffffffffffffffffffffffffffffffffffffffff1673ffffffffffffffffffffffffffffffffffffffff16815260200190815260200160002060030181905550836000808773ffffffffffffffffffffffffffffffffffffffff1673ffffffffffffffffffffffffffffffffffffffff16815260200190815260200160002060030154016000808773ffffffffffffffffffffffffffffffffffffffff1673ffffffffffffffffffffffffffffffffffffffff168152602001908152602001600020600301819055505050505050565b6080604051908101604052803373ffffffffffffffffffffffffffffffffffffffff168152602001838152602001828152602001600a8152506000803373ffffffffffffffffffffffffffffffffffffffff1673ffffffffffffffffffffffffffffffffffffffff16815260200190815260200160002060008201518160000160006101000a81548173ffffffffffffffffffffffffffffffffffffffff021916908373ffffffffffffffffffffffffffffffffffffffff16021790555060208201518160010190805190602001906103fb92919061054e565b5060408201518160020155606082015181600301559050505050565b60008060003373ffffffffffffffffffffffffffffffffffffffff1673ffffffffffffffffffffffffffffffffffffffff16815260200190815260200160002060000160009054906101000a900473ffffffffffffffffffffffffffffffffffffffff1673ffffffffffffffffffffffffffffffffffffffff163373ffffffffffffffffffffffffffffffffffffffff161415156104b457600080fd5b81806000803373ffffffffffffffffffffffffffffffffffffffff1673ffffffffffffffffffffffffffffffffffffffff1681526020019081526020016000206002015414151561050457600080fd5b6000803373ffffffffffffffffffffffffffffffffffffffff1673ffffffffffffffffffffffffffffffffffffffff16815260200190815260200160002060030154915050919050565b828054600181600116156101000203166002900490600052602060002090601f016020900481019282601f1061058f57805160ff19168380011785556105bd565b828001600101855582156105bd579182015b828111156105bc5782518255916020019190600101906105a1565b5b5090506105ca91906105ce565b5090565b6105f091905b808211156105ec5760008160009055506001016105d4565b5090565b905600a165627a7a72305820370b3fb1a5087f56c0be1cc627e03bd8258db836a948801bb4ea265297a5815e0029",
  "source": "pragma solidity >=0.4.21 <0.7.0;\r\n\r\ncontract sheeraCoin{\r\n    struct User{\r\n        address account_address;\r\n        string name;\r\n        uint pin;\r\n        uint amount;\r\n    }\r\n    mapping(address=>User) private users;\r\n    \r\n    function createAccount(string memory _name,uint _pin) public{\r\n        users[msg.sender] = User(msg.sender, _name, _pin ,10);\r\n    }\r\n    \r\n    modifier verifyPin(uint pin){\r\n        require(users[msg.sender].pin == pin);\r\n        _;\r\n    }\r\n    \r\n    modifier verifyUser{\r\n        require(msg.sender == users[msg.sender].account_address);\r\n        _;\r\n    }\r\n    modifier verifyBalance(uint _amt){\r\n        require(users[msg.sender].amount >= _amt);\r\n        _;\r\n    }\r\n    function checkBalance(uint _pin) public view verifyUser verifyPin(_pin) returns (uint){\r\n        return users[msg.sender].amount;\r\n    }\r\n    \r\n    function transfer_coin(address _receiver,uint _amt,uint _pin) verifyPin(_pin) verifyBalance(_amt)public{\r\n        users[msg.sender].amount = users[msg.sender].amount - _amt;\r\n        users[_receiver].amount = users[_receiver].amount + _amt;\r\n    }\r\n}",
  "sourcePath": "F:\\BlockChain Workshop\\contracts\\sheeracoin.sol",
  "compiler": {
    "name": "solc",
    "version": "0.4.26+commit.4563c3fc.Emscripten.clang"
  },
  "schemaVersion": "2.0.3",
  "updatedAt": "2020-02-26T10:07:18.439Z"
}